:100000000C942A000C9447000C9447000C94470071
:100010000C9447000C9447000C9447000C94470044
:100020000C9447000C9447000C9447000C94470034
:100030000C9447000C9447000C9447000C94470024
:100040000C9447000C9447000C9447000C94470014
:100050000C94470011241FBECFE5D8E0DEBFCDBF12
:1000600011E0A0E6B0E0EAE5F8E302C005900D92E9
:10007000A23BB107D9F711E0A2EBB1E001C01D929C
:10008000A83FB107E1F70E94921B0C942B1C0C9423
:100090000000EF92FF920F931F937B018C0120E0F1
:1000A00030E040E05FE40E94550488238CF0C801F2
:1000B000B70120E030E040E05FE40E94C1010E940F
:1000C00013059B01AC01205030404040504806C011
:1000D000C801B7010E9413059B01AC01B901CA0117
:1000E0001F910F91FF90EF900895A0E0B0E0EBE733
:1000F000F0E00C94F41BDC012B01FA019C9192308E
:1001000008F439C1EB018881823008F433C194309E
:1001100069F4843009F02FC111969C91119789815F
:10012000981709F428C1A1E9B0E025C1843009F489
:1001300021C18230A9F4923009F01DC19A01AD01AC
:1001400088E0EA010990AE01E90109929E0181501F
:10015000C1F7E201898111969C918923818308C1AD
:10016000923009F407C112962D903C901397EB0141
:100170008A819B811496AD90BD90CD90DC901797AD
:10018000EC80FD800E811F819101281B390BB90184
:1001900037FF04C066277727621B730B6032710537
:1001A0000CF061C0121613066CF537014801062EDB
:1001B00004C096948794779467940A94D2F721E0C8
:1001C00030E040E050E004C0220F331F441F551FB1
:1001D0006A95D2F721503040404050402E213F21B7
:1001E00040235123211531054105510521F021E01E
:1001F00030E040E050E079018A01E628F72808293C
:1002000019293CC0232BD1F1260E371E350146019A
:10021000062E04C096948794779467940A94D2F734
:1002200021E030E040E050E004C0220F331F441FC3
:10023000551F6A95D2F721503040404050402A2146
:100240003B214C215D21211531054105510521F04E
:1002500021E030E040E050E059016A01A628B728CB
:10026000C828D9280BC0821593052CF01C01AA249C
:10027000BB24650103C0EE24FF24870111969C91E5
:10028000D20111968C91981709F445C0992339F041
:10029000A80197012A193B094C095D0906C0A6016E
:1002A00095012E193F09400B510B57FD08C01182D3
:1002B0003382228224833583468357831DC081E0A5
:1002C00081833382228288279927DC01821B930B4A
:1002D000A40BB50B84839583A683B7830DC0220F2F
:1002E000331F441F551F24833583468357838281E0
:1002F000938101979383828324813581468157813D
:10030000DA01C9010197A109B1098F5F9F4FAF4F72
:10031000BF4328F30BC0918333822282EA0CFB1C7B
:100320000C1D1D1DE482F5820683178383E0808304
:10033000248135814681578157FF1AC0C901AA27F8
:1003400097FDA095BA2F81709070A070B0705695EF
:10035000479537952795822B932BA42BB52B848318
:100360009583A683B7838281938101969383828349
:10037000DF0101C0D201CD01CDB7DEB7E2E10C94BF
:10038000101CA0E2B0E0E7ECF1E00C94001C6983E3
:100390007A838B839C832D833E834F835887E9E048
:1003A000EE2EF12CEC0EFD1ECE010196B7010E943F
:1003B00004078E010F5E1F4FCE010596B8010E9403
:1003C00004078A8991E089278A8BC701B801AE01A9
:1003D000475E5F4F0E9475000E942F06A096E6E0E0
:1003E0000C941C1CA0E2B0E0E8EFF1E00C94001CBF
:1003F00069837A838B839C832D833E834F835887C5
:10040000F9E0EF2EF12CEC0EFD1ECE010196B701A6
:100410000E9404078E010F5E1F4FCE010596B801A2
:100420000E940407C701B801AE01475E5F4F0E94FA
:1004300075000E942F06A096E6E00C941C1CA0E21A
:10044000B0E0E5E2F2E00C94F41B69837A838B83DD
:100450009C832D833E834F835887CE010196BE0136
:10046000675F7F4F0E940407CE010596BE016F5E55
:100470007F4F0E9404079985923088F089898230E5
:10048000C8F0943019F4823051F404C0843029F457
:10049000923081F481E990E0C6C0923049F420E0C6
:1004A0009A858A89981321E02A87CE010996BBC0D4
:1004B000823049F420E09A858A89981321E02A8BBA
:1004C000CE014196B0C02D843E844F8458886D88FB
:1004D0007E888F88988CEE24FF248701AA24BB2471
:1004E000650140E050E060E070E0E0E0F0E0C10174
:1004F00081709070892BE9F0E60CF71C081D191D1E
:100500009A01AB012A0D3B1D4C1D5D1D80E090E062
:10051000A0E0B0E0E614F7040805190520F481E036
:1005200090E0A0E0B0E0BA01A901480F591F6A1F8E
:100530007B1FAA0CBB1CCC1CDD1C97FE08C081E0F5
:1005400090E0A0E0B0E0A82AB92ACA2ADB2A3196B6
:10055000E032F10549F0660C771C881C991C569412
:10056000479437942794C3CFFA85EA892B893C892D
:100570008B859C85280F391F2E5F3F4F17C0CA01FE
:1005800081709070892B61F016950795F794E79428
:1005900080E090E0A0E0B0E8E82AF92A0A2B1B2BC3
:1005A00076956795579547952F5F3F4F77FDE7CF36
:1005B0000CC0440F551F661F771F17FD4160EE0CDE
:1005C000FF1C001F111F21503040403090E05907A0
:1005D00090E0690790E4790760F32B8F3C8FDB0193
:1005E000CA018F779070A070B07080349105A1051A
:1005F000B10561F447FD0AC0E114F10401051105DC
:1006000029F0405C5F4F6F4F7F4F40781A8EFE1786
:1006100011F081E08A8F4D8F5E8F6F8F78A383E01A
:10062000898FCE0149960E942F06A096E2E10C9494
:10063000101CA8E1B0E0EFE1F3E00C94FC1B69832F
:100640007A838B839C832D833E834F835887B9E0C5
:10065000EB2EF12CEC0EFD1ECE010196B7010E948F
:1006600004078E010F5E1F4FCE010596B8010E9450
:1006700004072985223008F47EC03989323010F40D
:10068000B8017CC08A859A8989278A87243011F02D
:10069000223031F4231709F06EC061E970E06EC0BA
:1006A000343039F41D861E861F86188A1C861B86E8
:1006B00004C0323021F484E08987B7015FC02B8504
:1006C0003C858B899C89281B390B3C872B87ED84C3
:1006D000FE840F851889AD88BE88CF88D88CEA142F
:1006E000FB040C051D0540F4EE0CFF1C001F111F40
:1006F000215030403C872B8720E030E040E050E044
:1007000080E090E0A0E0B0E460E070E0EA14FB0478
:100710000C051D0540F0282B392B4A2B5B2BEA18C2
:10072000FB080C091D09B695A79597958795EE0CC2
:10073000FF1C001F111F6F5F7F4F6F31710531F775
:10074000DA01C9018F779070A070B0708034910584
:10075000A105B10561F427FD0AC0E114F10401050A
:10076000110529F0205C3F4F4F4F5F4F20782D87B8
:100770003E874F87588BBE01675F7F4FCB010E943A
:100780002F066896EAE00C94181CA8E1B0E0EBECA8
:10079000F3E00C94001C69837A838B839C832D8304
:1007A0003E834F83588789E0E82EF12CEC0EFD1E26
:1007B000CE010196B7010E9404078E010F5E1F4F04
:1007C000CE010596B8010E9404078985823040F069
:1007D0008989823028F0C701B8010E947C0701C0D6
:1007E00081E06896E6E00C941C1CA8E1B0E0EBEF19
:1007F000F3E00C94001C69837A838B839C832D83A4
:100800003E834F83588789E0E82EF12CEC0EFD1EC5
:10081000CE010196B7010E9404078E010F5E1F4FA3
:10082000CE010596B8010E9404078985823040F008
:100830008989823028F0C701B8010E947C0701C075
:1008400081E06896E6E00C941C1CA8E1B0E0EBE2C5
:10085000F4E00C94001C69837A838B839C832D8342
:100860003E834F83588789E0E82EF12CEC0EFD1E65
:10087000CE010196B7010E9404078E010F5E1F4F43
:10088000CE010596B8010E9404078985823040F0A8
:100890008989823028F0C701B8010E947C0701C015
:1008A0008FEF6896E6E00C941C1CA8E1B0E0EBE545
:1008B000F4E00C94001C69837A838B839C832D83E2
:1008C0003E834F83588789E0E82EF12CEC0EFD1E05
:1008D000CE010196B7010E9404078E010F5E1F4FE3
:1008E000CE010596B8010E9404078985823040F048
:1008F0008989823028F0C701B8010E947C0701C0B5
:100900008FEF6896E6E00C941C1CA8E1B0E0EBE8E1
:10091000F4E00C94001C69837A838B839C832D8381
:100920003E834F83588789E0E82EF12CEC0EFD1EA4
:10093000CE010196B7010E9404078E010F5E1F4F82
:10094000CE010596B8010E9404078985823040F0E7
:100950008989823028F0C701B8010E947C0701C054
:1009600081E06896E6E00C941C1CA8E0B0E0EBEB9C
:10097000F4E00C94FD1B9B01AC0183E08983DA0158
:10098000C9018827B7FD83959927AA27BB27B82EC9
:10099000211531054105510519F482E089833AC0DA
:1009A0008823A9F0203080E0380780E0480780E8FD
:1009B000580729F460E070E080E09FEC30C0EE243E
:1009C000FF248701E21AF30A040B150B02C0790118
:1009D0008A018EE1C82ED12CDC82CB82ED82FE8290
:1009E0000F831887C801B7010E94E0050197181608
:1009F000190684F4082E04C0EE0CFF1C001F111F02
:100A00000A94D2F7ED82FE820F831887C81AD90A9A
:100A1000DC82CB82BA82CE0101960E942F062896F4
:100A2000E9E00C94191CACE0B0E0E9E1F5E00C94CD
:100A3000041C69837A838B839C83CE010196BE015B
:100A40006B5F7F4F0E9404078D81823061F182309D
:100A500050F1843021F48E81882351F12EC02F81F2
:100A6000388537FD20C06E812F3131051CF066239B
:100A7000F9F023C08EE190E0821B930B29853A8523
:100A80004B855C8504C056954795379527958A9583
:100A9000D2F76623B1F050954095309521953F4FA0
:100AA0004F4F5F4F0EC020E030E040E050E009C003
:100AB0002FEF3FEF4FEF5FE704C020E030E040E072
:100AC00050E8B901CA012C96E2E00C94201CA8E081
:100AD000B0E0EDE6F5E00C94FC1B7B018C016115A8
:100AE00071058105910519F482E0898360C083E076
:100AF00089838EE1C82ED12CDC82CB82ED82FE82EE
:100B00000F831887C801B7010E94E005FC013197E7
:100B1000F7FF3BC0222733272E1B3F0B57016801ED
:100B2000022E04C0D694C794B794A7940A94D2F71F
:100B300040E050E060E070E081E090E0A0E0B0E0F4
:100B400004C0880F991FAA1FBB1F2A95D2F70197CF
:100B5000A109B1098E219F21A023B1230097A105EE
:100B6000B10521F041E050E060E070E04A295B29E6
:100B70006C297D294D835E836F8378878EE190E0B9
:100B80008E1B9F0B9C838B8312C0309781F00E2E9F
:100B900004C0EE0CFF1C001F111F0A94D2F7ED8257
:100BA000FE820F831887CE1ADF0ADC82CB821A827C
:100BB000CE0101960E942F062896EAE00C94181C9C
:100BC000EF92FF920F931F937B018C0180E0E81658
:100BD00080E0F80681E0080780E0180788F48FEFCE
:100BE000E816F1040105110531F028F088E090E0E5
:100BF000A0E0B0E017C080E090E0A0E0B0E012C05C
:100C000080E0E81680E0F80680E0080781E0180739
:100C100028F088E190E0A0E0B0E004C080E190E03E
:100C2000A0E0B0E020E230E040E050E0281B390BCB
:100C30004A0B5B0B04C016950795F794E7948A95C9
:100C4000D2F7F701E756FF4F8081281B3109410990
:100C50005109C9011F910F91FF90EF900895DF9204
:100C6000EF92FF920F931F93FC01E480F5800681C1
:100C70001781D1808081823048F480E090E0A0E14B
:100C8000B0E0E82AF92A0A2B1B2BA5C0843009F40E
:100C90009FC0823021F4EE24FF24870105C0E114B7
:100CA000F1040105110519F4E0E0F0E096C062815D
:100CB00073819FEF623879070CF05BC022E83FEF49
:100CC000261B370B2A3131052CF020E030E040E0C4
:100CD00050E02AC0B801A701022E04C0769567959E
:100CE000579547950A94D2F781E090E0A0E0B0E0F4
:100CF00004C0880F991FAA1FBB1F2A95D2F701971E
:100D0000A109B1098E219F21A023B1230097A1053C
:100D1000B10521F081E090E0A0E0B0E09A01AB01E4
:100D2000282B392B4A2B5B2BDA01C9018F77907066
:100D3000A070B07080349105A105B10539F427FF8A
:100D400009C0205C3F4F4F4F5F4F04C0215C3F4FB5
:100D50004F4F5F4FE0E0F0E02030A0E03A07A0E026
:100D60004A07A0E45A0710F0E1E0F0E079018A01B7
:100D700027C06038710564F5FB01E158FF4FD801C9
:100D8000C7018F779070A070B07080349105A10575
:100D9000B10539F4E7FE0DC080E490E0A0E0B0E0DA
:100DA00004C08FE390E0A0E0B0E0E80EF91E0A1F57
:100DB0001B1F17FF05C016950795F794E79431960A
:100DC00087E016950795F794E7948A95D1F705C0C3
:100DD000EE24FF248701EFEFF0E06E2F6795662782
:100DE0006795902F9F77D794DD24D7948E2F869583
:100DF000492F462B582F5D29B701CA011F910F912A
:100E0000FF90EF90DF900895FC01DB01408151815C
:100E10002281622F6F7770E0221F2227221F938189
:100E2000892F880F822B282F30E0991F9927991F2F
:100E300011969C93119721153105A9F5411551057E
:100E40006105710511F482E037C082E89FEF1396C7
:100E50009C938E9312979A01AB0167E0220F331F88
:100E6000441F551F6A95D1F783E08C930DC0220F64
:100E7000331F441F551F12968D919C911397019714
:100E800013969C938E931297203080E0380780E071
:100E9000480780E4580758F314962D933D934D93DB
:100EA0005C93179708952F3F310579F4411551054B
:100EB0006105710519F484E08C93089564FF03C003
:100EC00081E08C9312C01C9210C02F5730401396B3
:100ED0003C932E93129783E08C9387E0440F551F29
:100EE000661F771F8A95D1F7706414964D935D93B2
:100EF0006D937C93179708951F93DC01FB019C91E0
:100F0000923008F447C08081823008F443C09430A6
:100F100051F411961C91843099F58181682F70E00D
:100F2000611B71093FC0843021F0923031F482306E
:100F3000B9F18181882389F12DC011961C911197F7
:100F40008230F1F081811817D9F412962D913C91DD
:100F50001397828193818217930794F0281739079A
:100F6000BCF014968D919D910D90BC91A02D248183
:100F7000358146815781281739074A075B0718F4DE
:100F8000112341F00AC082179307A407B50740F464
:100F9000112319F061E070E005C06FEF7FEF02C030
:100FA00060E070E0CB011F910895DF93CF93CDB740
:100FB000DEB727970FB6F894DEBF0FBECDBF89838B
:100FC0006A834B838B81813009F06FC08981282F20
:100FD00030E03F832E838E819F818130910549F1DE
:100FE0002E813F81223031052CF48E819F81009724
:100FF00061F0D2C02E813F812230310571F18E81A6
:101000009F8183309105E9F1C7C0AAE3B0E0EAE32C
:10101000F0E08081482F8A81282F30E081E090E045
:10102000022E02C0880F991F0A94E2F7842B8C933A
:10103000B3C0A7E3B0E0E7E3F0E08081482F8A8106
:10104000282F30E081E090E0022E02C0880F991F27
:101050000A94E2F7842B8C939FC0A4E3B0E0E4E30E
:10106000F0E08081482F8A81282F30E081E090E0F5
:10107000022E02C0880F991F0A94E2F7842B8C93EA
:101080008BC0A1E3B0E0E1E3F0E08081482F8A81EA
:10109000282F30E081E090E0022E02C0880F991FD7
:1010A0000A94E2F7842B8C9377C08B81882309F014
:1010B00073C08981282F30E03D832C838C819D81F2
:1010C0008130910559F12C813D81223031052CF47C
:1010D0008C819D81009769F05FC02C813D81223019
:1010E000310589F18C819D818330910509F440C0DF
:1010F00053C0AAE3B0E0EAE3F0E08081482F8A81A0
:10110000282F30E081E090E0022E02C0880F991F66
:101110000A94E2F7809584238C933EC0A7E3B0E065
:10112000E7E3F0E08081482F8A81282F30E081E0DA
:1011300090E0022E02C0880F991F0A94E2F7809572
:1011400084238C9329C0A4E3B0E0E4E3F0E0808141
:10115000482F8A81282F30E081E090E0022E02C0E3
:10116000880F991F0A94E2F7809584238C9314C00A
:10117000A1E3B0E0E1E3F0E08081482F8A81282FED
:1011800030E081E090E0022E02C0880F991F0A949F
:10119000E2F7809584238C9327960FB6F894DEBFF0
:1011A0000FBECDBFCF91DF910895DF93CF93CDB721
:1011B000DEB727970FB6F894DEBF0FBECDBF898389
:1011C0006A834B838B81813009F06FC08981282F1E
:1011D00030E03F832E838E819F818130910549F1DC
:1011E0002E813F81223031052CF48E819F81009722
:1011F00061F0D2C02E813F812230310571F18E81A4
:101200009F8183309105E9F1C7C0ABE3B0E0EBE328
:10121000F0E08081482F8A81282F30E081E090E043
:10122000022E02C0880F991F0A94E2F7842B8C9338
:10123000B3C0A8E3B0E0E8E3F0E08081482F8A8102
:10124000282F30E081E090E0022E02C0880F991F25
:101250000A94E2F7842B8C939FC0A5E3B0E0E5E30A
:10126000F0E08081482F8A81282F30E081E090E0F3
:10127000022E02C0880F991F0A94E2F7842B8C93E8
:101280008BC0A2E3B0E0E2E3F0E08081482F8A81E6
:10129000282F30E081E090E0022E02C0880F991FD5
:1012A0000A94E2F7842B8C9377C08B81882309F012
:1012B00073C08981282F30E03D832C838C819D81F0
:1012C0008130910559F12C813D81223031052CF47A
:1012D0008C819D81009769F05FC02C813D81223017
:1012E000310589F18C819D818330910509F440C0DD
:1012F00053C0ABE3B0E0EBE3F0E08081482F8A819C
:10130000282F30E081E090E0022E02C0880F991F64
:101310000A94E2F7809584238C933EC0A8E3B0E062
:10132000E8E3F0E08081482F8A81282F30E081E0D7
:1013300090E0022E02C0880F991F0A94E2F7809570
:1013400084238C9329C0A5E3B0E0E5E3F0E080813D
:10135000482F8A81282F30E081E090E0022E02C0E1
:10136000880F991F0A94E2F7809584238C9314C008
:10137000A2E3B0E0E2E3F0E08081482F8A81282FE9
:1013800030E081E090E0022E02C0880F991F0A949D
:10139000E2F7809584238C9327960FB6F894DEBFEE
:1013A0000FBECDBFCF91DF910895DF93CF9300D0D3
:1013B00000D000D0CDB7DEB789836A838981282F1A
:1013C00030E03D832C834C815D814130510549F1F2
:1013D0008C819D818230910534F42C813D812115D1
:1013E000310561F057C04C815D814230510561F19A
:1013F0008C819D8183309105D1F14CC0E9E3F0E00F
:101400008081282F30E08A81882F90E0A90102C0D6
:10141000559547958A95E2F7CA01582F51705B831D
:101420003AC0E6E3F0E08081282F30E08A81882FFF
:1014300090E0A90102C0559547958A95E2F7CA0147
:10144000582F51705B8327C0E3E3F0E08081282FA1
:1014500030E08A81882F90E0A90102C05595479518
:101460008A95E2F7CA01582F51705B8314C0E0E3FC
:10147000F0E08081282F30E08A81882F90E0A90158
:1014800002C0559547958A95E2F7CA01582F5170C9
:101490005B8301C002C08B818E838E8126960FB63E
:1014A000F894DEBF0FBECDBFCF91DF910895DF93DB
:1014B000CF9300D000D0CDB7DEB789836A8389810E
:1014C000282F30E03C832B838B819C8181309105D8
:1014D00049F12B813C81223031052CF48B819C8198
:1014E000009761F05AC02B813C812230310571F1A7
:1014F0008B819C8183309105E9F14FC0ABE3B0E073
:10150000EBE3F0E08081482F8A81282F30E081E0F2
:1015100090E0022E02C0880F991F0A94E2F78427F8
:101520008C933BC0A8E3B0E0E8E3F0E08081482F73
:101530008A81282F30E081E090E0022E02C0880FDF
:10154000991F0A94E2F784278C9327C0A5E3B0E0A3
:10155000E5E3F0E08081482F8A81282F30E081E0A8
:1015600090E0022E02C0880F991F0A94E2F78427A8
:101570008C9313C0A2E3B0E0E2E3F0E08081482F57
:101580008A81282F30E081E090E0022E02C0880F8F
:10159000991F0A94E2F784278C930F900F900F9075
:1015A0000F90CF91DF910895DF93CF9300D000D0BB
:1015B000CDB7DEB789836A838981282F30E03C83E9
:1015C0002B838B819C8181309105D1F02B813C81D3
:1015D000223031052CF48B819C81009761F01EC074
:1015E0002B813C812230310581F08B819C818330BD
:1015F000910581F013C0EAE3F0E08A8180830EC098
:10160000E7E3F0E08A81808309C0E4E3F0E08A81C7
:10161000808304C0E1E3F0E08A8180830F900F9023
:101620000F900F90CF91DF910895DF93CF9300D06B
:1016300000D0CDB7DEB789836A838981282F30E057
:101640003C832B838B819C8181309105D1F02B8150
:101650003C81223031052CF48B819C81009761F014
:101660001EC02B813C812230310581F08B819C8111
:101670008330910581F013C0EBE3F0E08A81808331
:101680000EC0E8E3F0E08A81808309C0E5E3F0E082
:101690008A81808304C0E2E3F0E08A8180830F9036
:1016A0000F900F900F90CF91DF910895DF93CF931C
:1016B000CDB7DEB782E060EF0E94D40A82E06FEF20
:1016C0000E94150BCF91DF910895DF93CF93CDB793
:1016D000DEB764970FB6F894DEBF0FBECDBF8FEFB5
:1016E0008B8B1A8A198AB3C08989982F9C5F82E0F4
:1016F000692F40E00E94D508188A1F8695C09F85F3
:1017000082E0692F0E94D5098C8B8C89882309F08F
:1017100086C08F859889880F991F880F991F982FE9
:101720008989890F8B8B06C09F8582E0692F0E9473
:10173000D5098C8B8C898823B9F380E090E0A0EAEE
:10174000B0E48B879C87AD87BE876B857C858D8554
:101750009E8520E030E04AEF54E40E941F02DC0145
:10176000CB018F839887A987BA876F817885898510
:101770009A8520E030E040E85FE30E9485048823FA
:101780002CF481E090E09E838D833FC06F8178854B
:1017900089859A8520E03FEF4FE757E40E942504B2
:1017A00018164CF56B857C858D859E8520E030E094
:1017B00040E251E40E941F02DC01CB01BC01CD01DB
:1017C0000E944900DC01CB019E838D830FC088EC11
:1017D00090E09C838B838B819C810197F1F79C83A4
:1017E0008B838D819E8101979E838D838D819E81C8
:1017F000009769F714C06F81788589859A850E9462
:101800004900DC01CB019E838D838D819E819A836B
:10181000898389819A810197F1F79A8389838F85DA
:1018200098890196988B8F878F8598898430910548
:101830000CF465CF8989982F9C5F82E0692F41E085
:101840000E94D50889899A8901969A8B898B898902
:101850009A89843091050CF447CF8B8964960FB632
:10186000F894DEBF0FBECDBFCF91DF910895DF9317
:10187000CF93CDB7DEB764970FB6F894DEBF0FBE37
:10188000CDBF8FEF8B8B1A8A198AC8C089899A8934
:10189000FC01E255FE4F908182E0692F40E00E94FA
:1018A000D508188A1F86A4C08F859889FC01E65543
:1018B000FE4F908182E0692F0E94D5098C8B8C8924
:1018C000882309F090C08F85988929893A89880FE3
:1018D000991F880F991F820F931FFC01E656FE4F38
:1018E00080818B8B0BC08F859889FC01E655FE4F5C
:1018F000908182E0692F0E94D5098C8B8C89882386
:1019000091F380E090E0A0E2B1E48B879C87AD8703
:10191000BE876B857C858D859E8520E030E04AEF13
:1019200054E40E941F02DC01CB018F839887A987B2
:10193000BA876F81788589859A8520E030E040E814
:101940005FE30E94850488232CF481E090E09E836D
:101950008D833FC06F81788589859A8520E03FEF30
:101960004FE757E40E94250418164CF56B857C85DB
:101970008D859E8520E030E040E251E40E941F0208
:10198000DC01CB01BC01CD010E944900DC01CB018F
:101990009E838D830FC088EC90E09C838B838B812A
:1019A0009C810197F1F79C838B838D819E810197A8
:1019B0009E838D838D819E81009769F714C06F810E
:1019C000788589859A850E944900DC01CB019E8338
:1019D0008D838D819E819A83898389819A810197E4
:1019E000F1F79A8389838F8598890196988B8F87E1
:1019F0008F859889843091050CF456CF89899A890E
:101A0000FC01E255FE4F908182E0692F41E00E9487
:101A1000D50889899A8901969A8B898B89899A89AF
:101A2000843091050CF432CF8B8964960FB6F8940C
:101A3000DEBF0FBECDBFCF91DF910895DF93CF936F
:101A4000CDB7DEB7E8970FB6F894DEBF0FBECDBFB7
:101A500080E06FEF0E94D40A81E060E041E00E94E4
:101A6000D50781E061E041E00E94D50781E062E0B6
:101A700041E00E94D50780E090E0ACE0B2E48DAB9D
:101A80009EABAFABB8AF6DA97EA98FA998AD20E092
:101A900030E04AEF54E40E941F02DC01CB0189AB25
:101AA0009AABABABBCAB69A97AA98BA99CA920E086
:101AB00030E040E85FE30E94850488232CF481E055
:101AC00090E098AB8FA73FC069A97AA98BA99CA980
:101AD00020E03FEF4FE757E40E94250418164CF52D
:101AE0006DA97EA98FA998AD20E030E040E251E4D5
:101AF0000E941F02DC01CB01BC01CD010E94490004
:101B0000DC01CB0198AB8FA70FC088EC90E09EA7BB
:101B10008DA78DA59EA50197F1F79EA78DA78FA5EF
:101B200098A9019798AB8FA78FA598A9009769F7F7
:101B300014C069A97AA98BA99CA90E944900DC015B
:101B4000CB0198AB8FA78FA598A99CA78BA78BA536
:101B50009CA50197F1F79CA78BA788E30E94150F1E
:101B600080E090E0A0E8BFE38FA398A7A9A7BAA759
:101B70006FA178A589A59AA520E030E04AEF54E44A
:101B80000E941F02DC01CB018BA39CA3ADA3BEA3CB
:101B90006BA17CA18DA19EA120E030E040E85FE335
:101BA0000E94850488232CF481E090E09AA389A305
:101BB0003FC06BA17CA18DA19EA120E03FEF4FE72C
:101BC00057E40E94250418164CF56FA178A589A545
:101BD0009AA520E030E040E251E40E941F02DC01BF
:101BE000CB01BC01CD010E944900DC01CB019AA3CD
:101BF00089A30FC088EC90E098A38F8F8F8D98A158
:101C00000197F1F798A38F8F89A19AA101979AA3C1
:101C100089A389A19AA1009769F714C06BA17CA13F
:101C20008DA19EA10E944900DC01CB019AA389A34A
:101C300089A19AA19E8F8D8F8D8D9E8D0197F1F731
:101C40009E8F8D8F8FE00E94150F80E090E0A0E8BE
:101C5000BFE3898F9A8FAB8FBC8F698D7A8D8B8D07
:101C60009C8D20E030E04AEF54E40E941F02DC012A
:101C7000CB018D8B9E8BAF8BB88F6D897E898F89C1
:101C8000988D20E030E040E85FE30E9485048823DF
:101C90002CF481E090E09C8B8B8B3FC06D897E891A
:101CA0008F89988D20E03FEF4FE757E40E9425048D
:101CB00018164CF5698D7A8D8B8D9C8D20E030E067
:101CC00040E251E40E941F02DC01CB01BC01CD01C6
:101CD0000E944900DC01CB019C8B8B8B0FC088ECF0
:101CE00090E09A8B898B89899A890197F1F79A8B71
:101CF000898B8B899C8901979C8B8B8B8B899C8989
:101D0000009769F714C06D897E898F89988D0E942C
:101D10004900DC01CB019C8B8B8B8B899C89988B38
:101D20008F878F8598890197F1F7988B8F8781E04E
:101D30000E94150F80E090E0A0E0B0E48B879C87C4
:101D4000AD87BE876B857C858D859E8520E030E0E4
:101D50004AEF54E40E941F02DC01CB018F83988775
:101D6000A987BA876F81788589859A8520E030E0D8
:101D700040E85FE30E94850488232CF481E090E032
:101D80009E838D833FC06F81788589859A8520E009
:101D90003FEF4FE757E40E94250418164CF56B857A
:101DA0007C858D859E8520E030E040E251E40E94F4
:101DB0001F02DC01CB01BC01CD010E944900DC0106
:101DC000CB019E838D830FC088EC90E09C838B8336
:101DD0008B819C810197F1F79C838B838D819E8100
:101DE00001979E838D838D819E81009769F714C032
:101DF0006F81788589859A850E944900DC01CB0135
:101E00009E838D838D819E819A83898389819A8126
:101E10000197F1F79A838983E8960FB6F894DEBFAD
:101E20000FBECDBFCF91DF910895DF93CF93CDB794
:101E3000DEB769970FB6F894DEBF0FBECDBF898FAE
:101E400081E060E040E00E94D50881E061E040E090
:101E50000E94D50880E0698D0E94150B81E062E048
:101E600041E00E94D50880E090E0A0E8BFE38D8BC0
:101E70009E8BAF8BB88F6D897E898F89988D2BEA69
:101E80003AEA4AE250E40E941F02DC01CB01898B4E
:101E90009A8BAB8BBC8B69897A898B899C8920E072
:101EA00030E040E85FE30E94850488231CF481E071
:101EB000888B91C069897A898B899C8920E030E080
:101EC0004FE753E40E94250418160CF07BC06D897F
:101ED0007E898F89988D20E030E04AE754E40E94A3
:101EE0001903DC01CB018C879D87AE87BF876C858A
:101EF0007D858E859F8520E030E04AEF54E40E9486
:101F00001F02DC01CB0188879987AA87BB87688578
:101F100079858A859B8520E030E040E85FE30E9478
:101F2000850488232CF481E090E09F838E833FC05A
:101F3000688579858A859B8520E03FEF4FE757E4E8
:101F40000E94250418164CF56C857D858E859F852D
:101F500020E030E040E251E40E941F02DC01CB01AE
:101F6000BC01CD010E944900DC01CB019F838E831F
:101F70000FC088EC90E09D838C838C819D810197BC
:101F8000F1F79D838C838E819F8101979F838E8340
:101F90008E819F81009769F724C0688579858A853D
:101FA0009B850E944900DC01CB019F838E838E813B
:101FB0009F819B838A838A819B810197F1F79B8311
:101FC0008A830FC069897A898B899C890E9449001C
:101FD000DC01CB01888B8889898389818A95F1F717
:101FE000898381E062E040E00E94D50869960FB6DF
:101FF000F894DEBF0FBECDBFCF91DF910895DF9380
:10200000CF93CDB7DEB769970FB6F894DEBF0FBE9A
:10201000CDBF898F81E060E041E00E94D50881E07A
:1020200061E040E00E94D50880E0698D0E94150BB8
:1020300081E062E041E00E94D50880E090E0A0E805
:10204000BFE38D8B9E8BAF8BB88F6D897E898F8917
:10205000988D2BEA3AEA4AE250E40E941F02DC0122
:10206000CB01898B9A8BAB8BBC8B69897A898B89E5
:102070009C8920E030E040E85FE30E9485048823EB
:102080001CF481E0888B91C069897A898B899C894D
:1020900020E030E04FE753E40E94250418160CF0CE
:1020A0007BC06D897E898F89988D20E030E04AE77A
:1020B00054E40E941903DC01CB018C879D87AE8715
:1020C000BF876C857D858E859F8520E030E04AEF57
:1020D00054E40E941F02DC01CB0188879987AA87FC
:1020E000BB87688579858A859B8520E030E040E85C
:1020F0005FE30E94850488232CF481E090E09F83B5
:102100008E833FC0688579858A859B8520E03FEF77
:102110004FE757E40E94250418164CF56C857D8521
:102120008E859F8520E030E040E251E40E941F024E
:10213000DC01CB01BC01CD010E944900DC01CB01D7
:102140009F838E830FC088EC90E09D838C838C816D
:102150009D810197F1F79D838C838E819F810197EB
:102160009F838E838E819F81009769F724C0688545
:1021700079858A859B850E944900DC01CB019F837C
:102180008E838E819F819B838A838A819B81019725
:10219000F1F79B838A830FC069897A898B899C892F
:1021A0000E944900DC01CB01888B88898983898161
:1021B0008A95F1F7898381E062E040E00E94D508CA
:1021C00069960FB6F894DEBF0FBECDBFCF91DF91F9
:1021D0000895DF93CF9300D000D0CDB7DEB79C83B6
:1021E0008B831A8219820FC029813A818B819C814D
:1021F000FC01E20FF31F80810E94FF0F89819A8109
:1022000001969A83898329813A818B819C81FC0183
:10221000E20FF31F8081882339F70F900F900F9002
:102220000F90CF91DF910895DF93CF93CDB7DEB7B5
:1022300068970FB6F894DEBF0FBECDBF6D8B7E8B57
:102240008F8B988F198A1A8A1B8A1C8A1D861E8674
:102250001F86188A19861A861B861C868D899E8978
:10226000AF89B88D89839A83AB83BC838D899E891E
:10227000AF89B88D0097A105B10521F480E30E94D4
:10228000FF0FD4C08FEF9FEFAFEFBFEF8D839E8323
:10229000AF83B8872FC089819A81AB81BC812AE046
:1022A00030E040E050E0BC01CD010E94D21BDC01D7
:1022B000CB0189879A87AB87BC8789819A81AB815B
:1022C000BC812AE030E040E050E0BC01CD010E943A
:1022D000D21BDA01C90189839A83AB83BC838D81C8
:1022E0009E81AF81B8850196A11DB11D8D839E830E
:1022F000AF83B88789859A85AB85BC850097A10592
:10230000B10549F23EC08D899E89AF89B88D2AE01A
:1023100030E040E050E0BC01CD010E94D21BDC0166
:10232000CB01898B9A8BAB8BBC8B8D859E85AF85C2
:10233000B8892AE030E040E050E0BC01CD010E94C5
:10234000B31B9B01AC0189899A89AB89BC89820F37
:10235000931FA41FB51F8D879E87AF87B88B8D896C
:102360009E89AF89B88D2AE030E040E050E0BC01A2
:10237000CD010E94D21BDA01C9018D8B9E8BAF8BE0
:10238000B88F8D899E89AF89B88D0097A105B10559
:1023900009F0B9CF19861A861B861C8628C08D8540
:1023A0009E85AF85B8892AE030E040E050E0BC016E
:1023B000CD010E94D21BDC01CB0189879A87AB87B4
:1023C000BC878985805D0E94FF0F8D859E85AF85C6
:1023D000B8892AE030E040E050E0BC01CD010E9425
:1023E000D21BDA01C9018D879E87AF87B88B8D8597
:1023F0009E85AF85B8890097A105B10581F60EC00D
:1024000080E30E94FF0F8D819E81AF81B885019787
:10241000A109B1098D839E83AF83B8878D819E8189
:10242000AF81B8850097A105B10551F768960FB641
:10243000F894DEBF0FBECDBFCF91DF910895DF933B
:10244000CF9300D000D0CDB7DEB789836A838A816D
:10245000282F30E03C832B838B819C81009731F0C7
:102460002B813C812130310531F009C089818058B0
:102470000E94150F04C0898180540E94150F0F908F
:102480000F900F900F90CF91DF910895DF93CF932E
:1024900000D000D00F92CDB7DEB78B837D836C83E5
:1024A0001A828B81882F90E0880F991F880F991FBF
:1024B000880F991F8A838A81805C0E94150F198278
:1024C0000EC08981282F30E08C819D81FC01E20FB4
:1024D000F31F80810E94FF0F89818F5F898389812B
:1024E000883078F30F900F900F900F900F90CF914E
:1024F000DF910895DF93CF93CDB7DEB72E970FB658
:10250000F894DEBF0FBECDBF81E00E94150F80E0C2
:1025100090E0A0E0B0E48B879C87AD87BE876B8599
:102520007C858D859E8520E030E04AEF54E40E9452
:102530001F02DC01CB018F839887A987BA876F813F
:10254000788589859A8520E030E040E85FE30E9445
:10255000850488232CF481E090E09E838D833FC026
:102560006F81788589859A8520E03FEF4FE757E4B2
:102570000E94250418164CF56B857C858D859E85FB
:1025800020E030E040E251E40E941F02DC01CB0178
:10259000BC01CD010E944900DC01CB019E838D83EB
:1025A0000FC088EC90E09C838B838B819C8101978A
:1025B000F1F79C838B838D819E8101979E838D8310
:1025C0008D819E81009769F714C06F817885898518
:1025D0009A850E944900DC01CB019E838D838D8109
:1025E0009E819A83898389819A810197F1F79A83E1
:1025F00089832E960FB6F894DEBF0FBECDBFCF9164
:10260000DF910895DF93CF93CDB7DEB72E970FB646
:10261000F894DEBF0FBECDBF80E690E00E94E910C7
:1026200080E090E0AAEFB4E48B879C87AD87BE87FB
:102630006B857C858D859E8520E030E04AEF54E4F3
:102640000E941F02DC01CB018F839887A987BA877C
:102650006F81788589859A8520E030E040E85FE3E6
:102660000E94850488232CF481E090E09E838D8372
:102670003FC06F81788589859A8520E03FEF4FE7DD
:1026800057E40E94250418164CF56B857C858D85D2
:102690009E8520E030E040E251E40E941F02DC0110
:1026A000CB01BC01CD010E944900DC01CB019E831E
:1026B0008D830FC088EC90E09C838B838B819C8101
:1026C0000197F1F79C838B838D819E8101979E8377
:1026D0008D838D819E81009769F714C06F81788505
:1026E00089859A850E944900DC01CB019E838D83F8
:1026F0008D819E819A83898389819A810197F1F7DF
:102700009A8389830E947A122E960FB6F894DEBFC0
:102710000FBECDBFCF91DF910895DF93CF93CDB79B
:10272000DEB72F970FB6F894DEBF0FBECDBF0E9465
:102730007A128EE690E00E94E91080E090E0AAEF25
:10274000B4E48B879C87AD87BE876B857C858D8540
:102750009E8520E030E04AEF54E40E941F02DC0135
:10276000CB018F839887A987BA876F817885898500
:102770009A8520E030E040E85FE30E9485048823EA
:102780002CF481E090E09E838D833FC06F8178853B
:1027900089859A8520E03FEF4FE757E40E942504A2
:1027A00018164CF56B857C858D859E8520E030E084
:1027B00040E251E40E941F02DC01CB01BC01CD01CB
:1027C0000E944900DC01CB019E838D830FC088EC01
:1027D00090E09C838B838B819C810197F1F79C8394
:1027E0008B838D819E8101979E838D838D819E81B8
:1027F000009769F714C06F81788589859A850E9452
:102800004900DC01CB019E838D838D819E819A835B
:10281000898389819A810197F1F79A8389830E943C
:102820007A121F861FC08F85882F90E0880F991F0E
:10283000880F991FFC01EE54FE4F80E090E0A0E06D
:10284000B0E080839183A283B3838F85882F90E04B
:10285000880F991FFC01E652FE4F118210828F856E
:102860008F5F8F878F858A30F0F21092EE01109281
:10287000EF011092F0011092F1011092F601109206
:10288000F2011092F3011092F5011092F40181E02F
:10289000809399011092F7012F960FB6F894DEBF3E
:1028A0000FBECDBFCF91DF910895DF93CF930F92ED
:1028B000CDB7DEB70E947A128EE790E00E94E91051
:1028C000198220C08981882F90E00196880F991F76
:1028D000880F991FFC01EE54FE4F80E090E0A0E0CD
:1028E000B0E080839183A283B3838981882F90E0B5
:1028F000880F991FFC01E652FE4F118210828981D8
:102900008F5F898389818A30E8F21092EE011092FC
:10291000EF011092F0011092F1011092F201109269
:10292000F3011092F5011092F40181E08093990176
:102930001092F70183E08093F6010F90CF91DF9121
:1029400008950F931F93DF93CF9300D000D000D052
:10295000CDB7DEB78E8380919901813009F051C0E7
:102960008091F101882309F04CC08091F6018150DB
:102970008093F6018091F60160E00E941F1280E2D0
:102980000E94FF0F8091EE01882F90E0880F991F21
:10299000880F991FFC01EE54FE4F80819181A28126
:1029A000B381BC01CD0120E030E040E251E40E945F
:1029B0001903DC01CB01BC01CD010E944900DC01FF
:1029C000CB018A839B83AC83BD838091EE01082F6A
:1029D00010E06A817B818C819D810E9467059B014B
:1029E000AC01C801880F991F880F991FFC01EE5494
:1029F000FE4F208331834283538381E08093F10132
:102A000067C080919901882309F062C08091F1012B
:102A1000882309F05DC081E0898310C08091F601B0
:102A200081508093F6018091F60160E00E941F12B0
:102A300080E20E94FF0F89818F5F89839091F70167
:102A40008981981720F08091F601882339F78091C9
:102A5000F501813011F58091EE01682F70E08091D1
:102A6000EE01882F90E0880F991F880F991FFC01B5
:102A7000EE54FE4F80819181A281B3819C01AD0112
:102A80005058CB01880F991F880F991FFC01EE54F5
:102A9000FE4F20833183428353838091EF01882F3F
:102AA00090E0880F991FFC01E652FE4F11821082C0
:102AB0001092F7011092F2011092F3011092F401BA
:102AC0001092F50181E08093990181E08093F101FA
:102AD00026960FB6F894DEBF0FBECDBFCF91DF9123
:102AE0001F910F910895DF93CF9300D00F92CDB730
:102AF000DEB789838091F7018F5F8093F701898129
:102B0000282F30E03B832A838A819B818B32910579
:102B100009F46FC02A813B812C32310534F48A815B
:102B20009B818A32910569F002C22A813B812D3254
:102B3000310509F4DBC08A819B818F32910569F1EF
:102B4000F6C18091F201882361F48091F30188231A
:102B500041F48091F401882321F48091F5018823C8
:102B600021F081E08093F001E2C18091F20188239D
:102B700009F0DDC18091F2018F5F8093F2018091B5
:102B8000EF01882F90E0880F991FFC01E652FE4F5D
:102B90008AE290E091838083CAC18091F201882308
:102BA00061F48091F301882341F48091F40188233A
:102BB00021F48091F501882321F081E08093F001D8
:102BC000B6C18091F301882309F0B1C18091F3016E
:102BD0008F5F8093F3018091EF01882F90E0880F41
:102BE000991FFC01E652FE4F8FE290E091838083B3
:102BF0009EC18091F4018F5F8093F4018091F20176
:102C00008823B1F48091F301882391F48091F50138
:102C1000882371F48091EF01882F90E0880F991F2D
:102C2000FC01E652FE4F8BE290E0918380837FC1EE
:102C30008091F201882371F08091EF01882F90E05C
:102C4000880F991FFC01E652FE4F8AE290E09183C3
:102C500080836DC18091F301882371F08091EF0131
:102C6000882F90E0880F991FFC01E652FE4F8FE2FB
:102C700090E0918380835BC18091F501882309F402
:102C800056C18091F501813041F08091F50183308A
:102C900021F08091F501853071F48091EF01882F4A
:102CA00090E0880F991FFC01E652FE4F8DE290E004
:102CB000918380833CC18091F501823049F08091FD
:102CC000F501843029F08091F501863009F02FC19B
:102CD0008091EF01882F90E0880F991FFC01E65248
:102CE000FE4F8BE290E09183808321C18091F501BA
:102CF0008F5F8093F5018091F2018823C9F580915F
:102D0000F3018823A9F58091F501813041F080918C
:102D1000F501833021F08091F501853071F48091C7
:102D2000EF01882F90E0880F991FFC01E652FE4FBB
:102D30008DE290E091838083FAC08091F50182302A
:102D400049F08091F501843029F08091F5018630B9
:102D500009F0EDC08091EF01882F90E0880F991F56
:102D6000FC01E652FE4F8BE290E091838083DFC04E
:102D70008091F201882309F46BC08091F5018130C4
:102D800041F08091F501833021F08091F50185308B
:102D900019F58091EE01682F70E08091EE01882F87
:102DA00090E0880F991F880F991FFC01EE54FE4F89
:102DB00080819181A281B3819C01AD015058CB01EA
:102DC000880F991F880F991FFC01EE54FE4F208336
:102DD0003183428353832EC08091F501823041F0CC
:102DE0008091F501843021F08091F501863011F554
:102DF0008091EE01682F70E08091EE01882F90E0C5
:102E0000880F991F880F991FFC01EE54FE4F808197
:102E10009181A281B3819C01AD015058CB01880FF3
:102E2000991F880F991FFC01EE54FE4F20833183B8
:102E3000428353838091EF01882F90E0880F991F80
:102E4000FC01E652FE4F8AE290E0918380836FC0DE
:102E50008091F301882309F46AC08091F5018130E3
:102E600041F08091F501833021F08091F5018530AA
:102E700019F58091EE01682F70E08091EE01882FA6
:102E800090E0880F991F880F991FFC01EE54FE4FA8
:102E900080819181A281B3819C01AD015058CB0109
:102EA000880F991F880F991FFC01EE54FE4F208355
:102EB0003183428353832EC08091F501823041F0EB
:102EC0008091F501843021F08091F501863011F573
:102ED0008091EE01682F70E08091EE01882F90E0E4
:102EE000880F991F880F991FFC01EE54FE4F8081B7
:102EF0009181A281B3819C01AD015058CB01880F13
:102F0000991F880F991FFC01EE54FE4F20833183D7
:102F1000428353838091EF01882F90E0880F991F9F
:102F2000FC01E652FE4F8FE290E0918380830F9088
:102F30000F900F90CF91DF910895CF92DF92EF9293
:102F4000FF920F931F93DF93CF9300D0CDB7DEB7DF
:102F50000E94370C882F90E09A83898389819A8117
:102F60008F3F9105A9F389819A818D33910511F5E0
:102F70008091F60160E00E941F1289810E94FF0F7C
:102F80008091F6018F5F8093F6018091F201882392
:102F900069F48091F501882349F48091F301882335
:102FA00029F48091F401882309F4C5C081E080935D
:102FB000F001C1C089819A818B32910579F08981B4
:102FC0009A818D32910551F089819A818A329105D9
:102FD00029F089819A818F329105A9F48091F601B7
:102FE00060E00E941F1289810E94FF0F8091F6010C
:102FF0008F5F8093F60189810E9473151092990169
:103000001092F101A5CF89819A818334910549F409
:103010008091F601882309F49BCF89810E94A11435
:1030200097CF8091F60160E00E941F1289810E9473
:10303000FF0F8091F6018F5F8093F60180919901D7
:103040008823B9F48091EE018F5F8093EE01809127
:10305000EF018F5F8093EF0181E0809399011092DF
:10306000F7011092F2011092F3011092F401109204
:10307000F5018091EE01082F10E08091EE01882F7C
:1030800090E0880F991F880F991FFC01EE54FE4FA6
:1030900080819181A281B381BC01CD0120E030E02B
:1030A00040E251E40E941F02DC01CB019C01AD0112
:1030B000C801880F991F880F991FFC01EE54FE4F1D
:1030C00020833183428353838091EE01C82EDD2417
:1030D0008091EE01882F90E0880F991F880F991F2B
:1030E000FC01EE54FE4FE080F18002811381898162
:1030F0009A81C097AA2797FDA095BA2FBC01CD0150
:103100000E94B5049B01AC01C801B7010E94F20105
:10311000DC01CB019C01AD01C601880F991F880F0E
:10312000991FFC01EE54FE4F208331834283538369
:103130001092F1010DCF0F900F90CF91DF911F9161
:103140000F91FF90EF90DF90CF900895EF92FF9254
:103150000F931F93DF93CF93CDB7DEB72D970FB6A5
:10316000F894DEBF0FBECDBF8091F001882309F037
:103170004CC11B8680E061E00E941F1282E890E053
:103180000E94E9108091B2019091B301A091B40125
:10319000B091B501BC01CD0120E030E040E050E04D
:1031A0000E94550488230CF489C08091B20190914B
:1031B000B301A091B401B091B501BC01CD010E9451
:1031C0004900DC01CB018F839887A987BA87E090FB
:1031D000B201F090B3010091B4011091B5016F817B
:1031E000788589859A850E9467059B01AC01C80195
:1031F000B7010E94C101DC01CB018B839C83AD83AD
:10320000BE8313C06B817C818D819E8120E030E084
:1032100040E251E40E941F02DC01CB018B839C83BE
:10322000AD83BE838B858F5F8B871D866B817C8191
:103230008D819E8120E030E040E85FE30E948504BC
:10324000882314F481E08D8781E09D858927882378
:1032500061F46B817C818D819E8120E030E040E0D3
:1032600050E00E94F503882369F68F819885A9852F
:10327000BA85BC01CD010E94141187E890E00E943C
:10328000E91081E08A8309C060E070E080E090E0AE
:103290000E9414118A818F5F8A839A818B85981787
:1032A00098F36B817C818D819E810E944900DC01B5
:1032B000CB01BC01CD010E941411B3C08091B201B9
:1032C0009091B301A091B401B091B501BC01CD01C1
:1032D00020E030E040E050E00E94850488230CF0BC
:1032E000A0C08091B2019091B301A091B401B091BE
:1032F000B501B058BC01CD010E944900DC01CB01F1
:103300008F839887A987BA878091B2019091B30182
:10331000A091B401B091B5017C018D0117FB10950E
:1033200017F910956F81788589859A850E946705C0
:103330009B01AC01C801B7010E94C101DC01CB01B6
:103340008B839C83AD83BE8313C06B817C818D8115
:103350009E8120E030E040E251E40E941F02DC0147
:10336000CB018B839C83AD83BE838B858F5F8B87E3
:103370001C866B817C818D819E8120E030E040E85D
:103380005FE30E948504882314F481E08C8781E048
:103390009C858927882361F46B817C818D819E8146
:1033A00020E030E040E050E00E94F503882369F619
:1033B00089E890E00E94E9108F819885A985BA85F7
:1033C000BC01CD010E94141187E890E00E94E91031
:1033D00081E0898309C060E070E080E090E00E94B5
:1033E000141189818F5F898399818B85981798F350
:1033F0006B817C818D819E810E944900DC01CB0123
:10340000BC01CD010E9414110CC08091F0018130EB
:1034100041F485E061E00E941F128BE890E00E9479
:10342000E9102D960FB6F894DEBF0FBECDBFCF9139
:10343000DF911F910F91FF90EF900895CF92DF924F
:10344000EF92FF920F931F93DF93CF9300D000D0A2
:103450000F92CDB7DEB71B821982EBC08B81882F0C
:1034600090E0880F991FFC01E652FE4F8081918108
:103470009D838C838C819D818B32910509F4D3C00F
:103480008C819D818C32910530F48C819D818A32B2
:10349000910571F0CBC08C819D818D32910509F42D
:1034A000C4C08C819D818F32910509F450C0BEC08B
:1034B0008981882321F48B818A8381E089838A81B1
:1034C000C82EDD248A81882F90E0880F991F880FED
:1034D000991FFC01EE54FE4FE080F18002811381C0
:1034E0008B81882F90E00196880F991F880F991F74
:1034F000FC01EE54FE4F2081318142815381C8018D
:10350000B7010E941F02DC01CB019C01AD01C60185
:10351000880F991F880F991FFC01EE54FE4F2083DE
:103520003183428353838B81882F90E00196880FEB
:10353000991F880F991FFC01EE54FE4F80E090E028
:10354000A0E0B0E080839183A283B3836FC08981C0
:10355000882321F48B818A8381E089838B81882F62
:1035600090E00196880F991F880F991FFC01EE5477
:10357000FE4F80819181A281B381BC01CD0120E009
:1035800030E040E050E00E94C503882321F481E050
:103590008093F0014BC08A81C82EDD248A81882F58
:1035A00090E0880F991F880F991FFC01EE54FE4F81
:1035B000E080F180028113818B81882F90E0019659
:1035C000880F991F880F991FFC01EE54FE4F208130
:1035D000318142815381C801B7010E941903DC0186
:1035E000CB019C01AD01C601880F991F880F991F5F
:1035F000FC01EE54FE4F20833183428353838B8141
:10360000882F90E00196880F991F880F991FFC0161
:10361000EE54FE4F80E090E0A0E0B0E08083918324
:10362000A283B38303C0198201C019828B818F5F8B
:103630008B839091EE018B81981709F00FCF1B823D
:103640005BC08B81882F90E0880F991FFC01E652A8
:10365000FE4F808191818D32910531F5E090B2016C
:10366000F090B3010091B4011091B5018B81882FC6
:1036700090E00196880F991F880F991FFC01EE5466
:10368000FE4F2081318142815381C801B7010E94E0
:10369000C101DC01CB018093B2019093B301A093EF
:1036A000B401B093B50125C0E090B201F090B30130
:1036B0000091B4011091B5018B81882F90E00196A3
:1036C000880F991F880F991FFC01EE54FE4F20812F
:1036D000318142815381C801B7010E94F201DC01AE
:1036E000CB018093B2019093B301A093B401B09346
:1036F000B5018B818F5F8B839091EE018B81981741
:1037000009F09FCF0E94A6180F900F900F900F9076
:103710000F90CF91DF911F910F91FF90EF90DF906D
:10372000CF900895DF93CF930F92CDB7DEB70E946D
:103730001E0D0E94560B0E9402130E949D170E94AC
:103740001E1A0E94370C898389818F3FD1F38981AA
:10375000833419F40E948D13F0CF8981833489F367
:103760000E945514EACF629FD001739FF001829F9F
:10377000E00DF11D649FE00DF11D929FF00D839F00
:10378000F00D749FF00D659FF00D9927729FB00D9D
:10379000E11DF91F639FB00DE11DF91FBD01CF01B0
:1037A00011240895A1E21A2EAA1BBB1BFD010DC016
:1037B000AA1FBB1FEE1FFF1FA217B307E407F507E1
:1037C00020F0A21BB30BE40BF50B661F771F881FBD
:1037D000991F1A9469F760957095809590959B0153
:1037E000AC01BD01CF0108952F923F924F925F929D
:1037F0006F927F928F929F92AF92BF92CF92DF9201
:10380000EF92FF920F931F93CF93DF93CDB7DEB765
:10381000CA1BDB0B0FB6F894DEBF0FBECDBF0994F9
:103820002A88398848885F846E847D848C849B8450
:10383000AA84B984C884DF80EE80FD800C811B815E
:10384000AA81B981CE0FD11D0FB6F894DEBF0FBE8D
:0A385000CDBFED010895F894FFCFFD
:10385A0020202043616C63756C61746F7200436C45
:10386A00656172696E67204C43442E2E2E00416EAC
:10387A007300416E733A002E002D004572726F720A
:10388A000000000000000000000001020203030320
:10389A0003040404040404040405050505050505D8
:1038AA0005050505050505050506060606060606B7
:1038BA00060606060606060606060606060606069E
:1038CA000606060606060606060707070707070787
:1038DA00070707070707070707070707070707076E
:1038EA00070707070707070707070707070707075E
:1038FA00070707070707070707070707070707074E
:10390A000707070707070707070808080808080836
:10391A00080808080808080808080808080808081D
:10392A00080808080808080808080808080808080D
:10393A0008080808080808080808080808080808FD
:10394A0008080808080808080808080808080808ED
:10395A0008080808080808080808080808080808DD
:10396A0008080808080808080808080808080808CD
:10397A0008080808080808080808080808080808BD
:10398A00080808080808080808013738392F3435A4
:10399A00362A3132332D43303D2B00010203040510
:0239AA0006070E
:00000001FF
